:020000040800F2
:10000000005000208D010008890100080000000058
:10001000890100088901000889010008000000002A
:10002000000000000000000000000000890100083E
:10003000890100080000000089010008890100080A
:100040008901000889010008890100088901000868
:100050008901000889010008890100088901000858
:100060008901000889010008890100088901000848
:100070008901000889010008890100088901000838
:100080008901000889010008890100088901000828
:100090008901000889010008890100088901000818
:1000A0008901000889010008890100088901000808
:1000B00089010008890100088901000889010008F8
:1000C00089010008890100088901000889010008E8
:1000D00089010008890100088901000889010008D8
:1000E00089010008890100088901000889010008C8
:1000F00089010008890100088901000889010008B8
:1001000089010008890100088901000889010008A7
:100110008901000889010008890100088901000897
:100120008901000889010008890100088901000887
:100130008901000889010008890100088901000877
:100140008901000889010008890100088916000852
:100150008901000889010008890100088901000857
:100160008901000889010008890100088901000847
:100170008901000889010008890100088901000837
:100180008901000889010008FEE70000684620F0A8
:1001900007018D4601B500230A4A0B499818884289
:1001A00004D20A49585898500433F5E7084B094AD5
:1001B000934203D2002043F8040BF8E700F00CF858
:1001C000FEE700BF000000203800002000390008D2
:1001D00038000020481C00202DE9F743002000F0E3
:1001E00061FF002001F008F9012001F09DF8684648
:1001F00001F075FE002401238DF805408DF80430D0
:100200008DF80640B5490A196058958802AE0583F5
:100210006946083446F8085D01F014FE182CF1D147
:100220000027AF4CE31938599A8802A9028341F894
:10023000082D0837694601F005FE302FF1D1002660
:10024000A84DAF197059BC8802AB44836946083683
:1002500043F8084D01F0F6FD182EF1D1A24D082605
:10026000284669460096802401F0ECFD2E839F4DC0
:10027000DFF87C8208264FF020094FF40057A8F8D9
:100280001A9001206F836E8301F0D8F8A8F81890B7
:1002900001202F832E8301F0D1F8013CE7D12046C5
:1002A0008F4A131881589D88083030284D83F7D124
:1002B000012001F0C3F80027894EF019BC5982884B
:1002C0000837302F2283F7D1012001F0B7F800253D
:1002D00001218DF804508DF80710804B5F1902AC96
:1002E000BE88E85844F8086D6946083501F0AAFD53
:1002F000182DF2D100257A48421902A9938828586E
:1003000041F8083D0835694601F09CFD302DF2D1D9
:100310000027744EF41902A8A588694640F8085DC4
:10032000B859083701F08EFD182FF2D1704F6420B4
:1003300001F022F83A6902F0010501F0B4F9C6B201
:1003400016B93B69D9070BD53DB18020012101F0D9
:1003500023FE8020002101F01FFE002001F0AAF9F9
:10036000002000F02FFB002000F024F9B6B960490E
:100370000C69E20770D45F480778422F6CD15E4A5F
:100380001678002E68D001F0D1FC0120002100F089
:10039000DFFF5A4BDF78082F46D103E0102000F032
:1003A000DDFA59E06FF00700012101F0E9FD6FF07F
:1003B0008000012101F0F0FD4FF0FF30012101F03C
:1003C000F7FD4FF0FF30012101F0FEFD4FF0FF304F
:1003D000002101F0D5FD4FF0FF30002101F0DCFDE0
:1003E0004FF0FF30002101F0E3FD4FF0FF3000211E
:1003F00001F0EAFD45B18020012101F0CDFD802012
:10040000002101F0C9FD08E001F04DF928B13C4898
:10041000D0F8E4550DB102F0C5FA3A4E346884F3D1
:10042000088836490A68904700F0CEFF012001464F
:1004300000F08EFF00F0D2FF40F2F31398421F4607
:10044000F8D900F0C1FF0120002100F081FF00F089
:10045000C5FFB842FBD9E7E700F0B6FF00F0BEFFEA
:100460003227B0FBF7F364210446B3FBF1F001FB44
:10047000103242F21073B4FBF3F1560841F28830A7
:1004800003FB11428242B4FBF7F307FB134188BF21
:10049000C6EB07060120B14294BF002101210A27C3
:1004A00000F056FFB4FBF7F607FB16440CB900F05A
:1004B000A9FD002000F03AFD00F090FF44F61F6116
:1004C0008842CBD900F080F80028C7D1002D3FF436
:1004D0005AAF074A1069C307C0D454E73036000842
:1004E0004836000818360008001002400004024098
:1004F00000000240D23F0008D33F0008044000083B
:10050000EC15002000400008124B1A78032A10B5A1
:100510000BD811490C6800F07F004FEAC41444EA7C
:10052000001008600FD104220EE0072A0FD80B49F3
:100530000C6800F07F004FEAC41444EA0010086021
:1005400001D1082200E001321A70002010BD4FF0E6
:10055000FF3010BDFC0400203800002044000020C3
:1005600070B5134B88B016461A7804460D468DF8C0
:1005700000209978DA7858781B798DF802108DF878
:1005800003208DF801008DF8043000F083FD8DF814
:100590000500F7208DF808006946204609228DF8ED
:1005A00006508DF8076000F087FA08B070BD00BFF4
:1005B0007837000810B9034B187070474FF0FF30C0
:1005C000704700BFFD040020014B1878704700BF42
:1005D000FD0400202DE9F04198460C4615460646DC
:1005E00000F04CFD00F0F0FEB8F1010F04D0B8F1BE
:1005F000020F40F0A38189E0B14B14B1012C0AD164
:1006000004E01C70AF4BB04A1C6092E019780729D7
:1006100000F2918197E01978082903D030460E2125
:100620000122E5E0A948AA4C02784378817822703B
:10063000C2780079A34FA44D6370A170E27020715D
:100640003F682D6800F026FD4FEA556E6071780E08
:100650000223E071C7F386417044A3712172C7F38E
:10066000C62341186372C7F3061253FA81F3C5F328
:100670008640A27252FA83F250FA82F1C5F3C62381
:1006800053FA81F22073C5F3061050FA82F16373B6
:100690000023A07384F80BE0C9B21A460F34184641
:1006A000A84221D010F807E04FF0080C01335200A7
:1006B000DBB242EADE12062B4FEA4E0ED2B25FFAEE
:1006C0008EFE0AD9C3F1070302FA03F2D2B251181F
:1006D000002304F8012BC9B21A460CF1FF3C1CF0B0
:1006E000FF0CE3D10130DBE71BB18B1804F8012BC1
:1006F000D9B24A42764902F07F00F723A21C20704B
:1007000063703046521A00F0D7F914E114B1012C8D
:1007100053D110E06A4B6B496B486E4A1C700C60F9
:1007200004606D4B6D496E4814706E4A1C700C600D
:1007300004601460FFE062480178072907D8654922
:1007400008782A180A702846FFF7DEFEF3E0082929
:100750002BD160480278AB18037060480368B3F58A
:10076000806F80F0E880584E5E4F5D4C3668386888
:10077000226807240132C5F380176D00072A47EA73
:100780004000EDB206D9524AD0540133B34228BFDB
:1007900009210022013CEDD1524C206050480260FA
:1007A0004E4A1360464B1970C5E0092902D14A4BE5
:1007B0001D70C0E00C220270BDE0434B47481F682B
:1007C0000168B942FFF42AAF3D4A13780C2B03D1DC
:1007D00030460E2142460BE03E4A3F4813780178EE
:1007E000584200F07F02914205D030460E2103228C
:1007F000FFF7B6FE9FE0334B3B4901240C701C68A9
:1008000044EA0700830740F08C80384A944202D8BB
:100810006FF0070087E000F0D9FC00F100614B1E8B
:100820009C426DD801F074FA00230C2159433048E2
:100830000A58944224D12F492F488C4201D10022DA
:1008400002600121006801FA03F1014203D02B4D3F
:100850004FF000082EE041EA000227490A60244ACE
:100860000C2000FB03230221586801F0B5FA082888
:10087000EDD04FF0FF3001F061FA6FF0030052E06D
:1008800001330C2BD1D1E2E76B7829781A0442EAC4
:10089000012315F8011CAA780B4343EA026101F019
:1008A0007DFA04350828E4D101F02AFA01F020FA93
:1008B00008F10408B84508EB0400E5D342E000BFA6
:1008C000FC04002038000020440000207837000895
:1008D0004C0000204000002048000020F8040020C8
:1008E000F404002000050020FD040020FF3F000864
:1008F00078360008004000083C0000204D00002031
:10090000B4F1005F84D300F069FC00F10050421E96
:1009100094423FF67DAF20460E493A4602F072FE01
:1009200010E06FF0080043420E213046DAB2FFF7C4
:1009300017FE00F067FB0020BDE8F0814FF0FF30AC
:10094000BDE8F0810449087842420F21304602F0A8
:100950007F02ECE74C0000204000002010B5114B56
:1009600088B01A7899788DF800200446DA7858789B
:100970001B798DF802108DF803208DF801008DF899
:10098000043000F087FBF7218DF8050001208DF879
:1009900006008DF8071020466946082200F08CF802
:1009A00008B010BD7837000808B52020FFF7D6FF43
:1009B0001020FFF7D3FF024B0020187008BD00BFC6
:1009C000FD04002010B5044600282CD1174A184910
:1009D000102313700B70174A174B184918601060DA
:1009E0000860174B174A184918601060086000F03B
:1009F00061FF164B164A1C70164B174914701C7079
:100A00000A78C00F422A04D114490A78110658BF47
:100A10001A70134B00211980124900220023C1E9EA
:100A20000023404210BD4FF0FF3010BD00000020F9
:100A300001000020040500200C05002030050020E6
:100A40003805002020050020100500201405002096
:100A50001805002015050020D03F0008D13F0008F0
:100A6000160500202805002010F0F00F38B50446C8
:100A70000D4604D101280CBF0C4B0D4B1C780D4BBF
:100A80001A6864F3071542B904F0F004102C0AD177
:100A90002846BDE8384000F07BBF204629469047F5
:100AA0000028F1D038BD4FF0FF3038BD01000020E4
:100AB00000000020040500202DE9F04180460E468C
:100AC00017460024BC4235D23B1B022B0DD0032B12
:100AD00019D0012B19D1325D052161F3030562F3B1
:100AE0000F2501346FF317450AE03119305D4A785C
:100AF000062363F3030560F30F2562F31745023401
:100B00006FF31F650FE0072000E0042060F303058A
:100B10003019335D4178827863F30F2561F317450F
:100B200062F31F65033440462946FFF79DFF002806
:100B3000C8DA00E00020BDE8F081000030B5A1B0C7
:100B4000F0238DF80030134B7E2232258DF80320E0
:100B50001A788DF8045000240F258DF801408DF887
:100B600002408DF805208DF8065002AB0D5D5A1E2F
:100B700035B101341A4603F8015C0133642CF5D118
:100B8000F72102F8011B6946521AFFF795FF21B0C1
:100B900030BD00BF1505002000B589B0F0238DF8E9
:100BA000003000238DF801308DF802307E238DF85F
:100BB000033032238DF80430084B8DF806101B7873
:100BC0008DF80720F7218DF80810092269468DF865
:100BD0000530FFF771FF09B000BD00BF150500200B
:100BE000F0B5454E8BB0337804460D461746FFF7F7
:100BF000F1FC00287CDA31780D295AD001D829B1CE
:100C000069E00E2974D00F2965D15AE03B4B1DB124
:100C1000012D03D11F706BE01D7069E01878052865
:100C200029D011D8022820D004D801283DD120464F
:100C3000334937E003281BD0042836D100F0C0FA2E
:100C400030490246684623E0082826D006D8062800
:100C500019D0072829D100F0C1FA16E009281FD0C1
:100C60007F2822D1FFF7A0FE42E02046264919E066
:100C70002046264916E0684600F0B4FA00282046CF
:100C800009DA23490EE000F0A1FA2249024668463B
:100C900001F004F82046694604E020461E4901E0C0
:100CA0001E492046FFF74AFF22E020460E210D2272
:100CB00004E0022D1CD120460E211022FFF76CFF0C
:100CC00016E0174A0DB1012D01D1556010E05268B0
:100CD00072B92046F2E70E210A462046FFF75CFF74
:100CE0000F49054B0A7800206FF307020A7018704D
:100CF00000200BB0F0BD00BF080500203405002027
:100D0000183700083A3700081F3700083037000846
:100D10003F370008413700084437000856370008BD
:100D200018050020F72910B50A465AD82E4B197815
:100D300001F0080303F0FF041BB12C4B1B78834226
:100D40004CD1A0F11103062B48D9284B187004BBD5
:100D50002548037803F00703042B03D82448C05C1C
:100D6000904221D101F00701052903D121480178E2
:100D7000914219D15A1C1C4B197802F0070060F3FC
:100D80000201052819702CD9CAB242F00800187067
:100D900027E0130611D5F72A06D101F01001CBB2D6
:100DA00013B10221FFF71CFF0F4B134A19780020E3
:100DB0006FF307011970107010BD01F01004E4B258
:100DC00044B9094B197841F0100119700A4B2146BA
:100DD0001A7000E00121FFF703FF02E04FF0FF303F
:100DE00010BD002010BD00BF180500201405002014
:100DF00078370008150500200805002001F00F03D2
:100E00002DE9F0470F46C1F30728C1F307494FEA20
:100E1000116A03F1080101F00F010629064602D804
:100E2000002A58D17AE0B8F1F00F05D003F10C0098
:100E300000F00F01032929D83A49D1E9004554EAC5
:100E4000050023D106F0F004302C4FF000000CD048
:100E5000502C13D0102C19D1334C208006F00F00E9
:100E6000012404FA00F0088010E02F4C208006F0E6
:100E70000F00012404FA00F0488007E02A4C20808B
:100E800006F00F00012404FA00F08880991E0D2955
:100E900044D8DFE801F01E1E071B242443434343CC
:100EA00043434307B8F1F70F13D83046414607F0E4
:100EB0000F07FFF737FF0F2F30D049463046FFF7B7
:100EC00031FF30465146FFF72DFF27E0B8F1F70F0D
:100ED00005D91AB3304627F0F00190471EE01A1FDB
:100EE00012F0FF041AD030464146FFF71BFF012CD9
:100EF0000CD030464946FFF715FF022C05D030468E
:100F00005146FFF70FFFD04600E0C846B8F1F70F93
:100F100004D1044800220023C0E900230020BDE8DA
:100F2000F08700BF280500201605002013B50446F1
:100F300001A800F045FD002807DB0199C1F303106B
:100F400010302246FFF75AFFF2E72849D1E9002383
:100F500052EA030047D0264B1888B0F57A7F42D971
:100F60000A8862B1002142FA01F313F0010003D1B3
:100F700001311029F7D101461031C8B21AE04B886F
:100F80005BB143FA02F010F0010103D10132102AE3
:100F9000F7D10A463032D0B20CE0888850B140FA1E
:100FA00003F111F0010203D10133102BF7D11346E5
:100FB0005033D8B20F4B1A7802F00801C9B249B1C8
:100FC0000D490978814205D16FF307021A700B4B66
:100FD00000221A700A490A6802B1904703480022A9
:100FE0000023C0E9002300201CBD00BF280500200D
:100FF0001605002018050020140500200805002013
:101000003805002010B500F007FD044600F048F850
:10101000054B1A884FF6FF718A4240EA040001D05E
:1010200001321A8010BD00BF16050020114BF7B524
:101030001C680746E4B1C1F30764C1F30720C1F39C
:1010400007420D4D8DF8064001F00F0100246E5C43
:101050008DF804008DF805202546B54208DA01AA6E
:10106000044B515D1B683846984701350443F4E74B
:101070002046FEBD0C05002008370008012803D0DB
:10108000034B1870002070474FF0FF30704700BFCF
:1010900001000020014B1878704700BF15050020A3
:1010A0000020704713B5044600287AD11F20012183
:1010B00000F036FF3C4B00949A6802F00C000828C0
:1010C00002D1012000905DE0196841F001021A6030
:1010D0009C60186820F08471344821F480321A60D2
:1010E0005860196821F480221A60DC600194186845
:1010F00040F4803119602C4B1A6802F400300090E3
:1011000001994A1C0192009818B90199B1F5A06F94
:10111000F1D11B6813F4003218BF0122009200982D
:1011200001282FD1204B2248196C41F080521A64BB
:10113000016841F48042026098689860996841F4BF
:1011400000429A6098681B4A40F4A05199605A6026
:10115000186840F0807119601868134A8101FBD546
:10116000154B40F205611960906820F00301916011
:10117000936843F0020090600B4A916801F00C0301
:10118000082BF9D10D48002100F0A2FD4FF440706A
:1011900000F094FD009A012A14BF4FF0FF300020A8
:1011A00001E04FF0FF301CBD003802401030002439
:1011B0000070004008544007003C02400000000856
:1011C000014B1868704700BF002004E0024B1888EC
:1011D00081B28802704700BF227AFF1F4FF440306F
:1011E0007047000000230B4A591089180A78D90764
:1011F00058BF120902F00F02092A94BF302137218B
:101200008A18C2540133182BEDD10021017608460B
:10121000704700BF107AFF1F074B1A681AB9EFF327
:101220001081064801604FF0010080F310881A68B1
:10123000511C196000207047400500203C0500202B
:10124000074A13683BB1581E106038B905490A684F
:1012500082F3108802E04FF0FF30704700207047A3
:10126000400500203C0500200F291CD80F4BDA68F0
:10127000D343C3F30222C2F1040301FA03F10901CB
:1012800000F16043CAB203F56141012381F80023F4
:1012900042B200F01F00510903FA00F2044840F87E
:1012A0002120002070474FF0FF30704700ED00E034
:1012B00000E100E073B5054668460E46144600F0AE
:1012C0000EFE02238DF805300096062C29D8DFE8A3
:1012D00004F02604090F13181D0003208DF80400E4
:1012E000002302E000238DF804308DF8073012E06F
:1012F00000228DF80420F8E700218DF80410012366
:10130000F3E701208DF80400002302E001238DF8AB
:1013100004308DF806302846694600F093FD002021
:1013200001E06FF001007CBDC30710B5044605D590
:1013300006484FF480510522FFF7BCFF34F00F033D
:1013400014BF6FF00100002010BD00BF000C024070
:10135000C20707D5074B11F0010F4FF4805214BF9D
:101360001A835A8330F00F0314BF6FF0010000207E
:10137000704700BF000C024030B5012185B0044623
:10138000102000F0E5FD54204443611E0D4CADF8E3
:1013900004104FF6FF730025204601A90293ADF813
:1013A0000C50ADF8065000F01BFE01210A46204605
:1013B00000F060FE2046012100F050FE284605B0F6
:1013C00030BD00BF001000400348012108B5416254
:1013D00000F064FE002008BD00100040054810B574
:1013E0000121446A00F04FFE00280CBF20464FF058
:1013F000FF3010BD001000401FB50446B8B90120F1
:10140000014600F0B1FDA7204FF6FF73ADF80400D0
:1014100001A909480293ADF80C40ADF8064000F070
:10142000DFFD0548012100F019FE204601E04FF0E4
:10143000FF3004B010BD00BF00000140044B596AEA
:1014400089B25A6A521A92B28242FAD9002070477F
:101450000000014012230B8000487047B437000899
:1014600004230B8000487047B0370008704770476E
:101470007047704770470020704700207047000099
:1014800065230B8000487047F337000810B50B4BFD
:101490008CB098781A888DF8060002A80C46ADF832
:1014A0000420FFF79FFE0028ACBF02A801A8044952
:1014B000224601F065F902480CB010BDE43700087F
:1014C000E41B002070B5164B86B00A4601AC03F150
:1014D000100618685968254603C50833B3422C46E0
:1014E000F7D11888002328800E495818017859B17F
:1014F00020395F298CBF002101210133202B06D028
:101500000029F1D101A805E0002BFBD001E0002962
:10151000F8D00448044901F033F9034806B070BD1F
:1015200044370008E03F0008E41B0020FFF7CABF73
:10153000FFF7C8BF1146FFF7C5BF00001FB5084C35
:101540000A462068616801AB03C3A068054C1860B7
:10155000214601A801F014F9204604B010BD00BFD7
:10156000E7370008E41B0020022908B503D108462C
:10157000002100F067FA002008BD012908B503D159
:101580000846002100F056FA002008BD10B50221DF
:10159000044601F046FD2046812101F042FD002075
:1015A00010BD002000F08CB9012000F089B90000C6
:1015B000022110B5402204460B4601F011FD8121A5
:1015C00040220223204601F00BFD0221034A044879
:1015D000402301F03FFD002010BD00BFAC150020EE
:1015E000EC15002073B50120244C014600F098FC56
:1015F00000204FF4D853022503268DF806008DF8FD
:1016000007006946204600938DF804508DF8056068
:1016100000F018FC204608210A2200F069FC204650
:1016200009210A2200F064FC20460B210A2200F066
:101630005FFC0A2220460C2100F05AFC4FF4806126
:1016400000918DF804502046012569468DF8075019
:101650008DF8056000F0F6FB0A210A46204600F0EE
:1016600047FC29464FF4804000F07EFC802029464C
:1016700000F062FC284600F035FB7CBD0000024013
:1016800043200821FFF7F0BD014801F06FBD00BF06
:10169000EC15002080B2FFF7D1BE4FF47A735843A7
:1016A00080B2FFF7CBBE4FF0A0431868C0F3C04034
:1016B00070470000022837B5054642D8FFF7F3FF10
:1016C0000446FFF76EFF45BB14F0FF0F25D01E4CFC
:1016D0002046FFF787FF1D481D491E4AC4F8E40550
:1016E000C4F8E81520460121C4F8EC2501F0AEF855
:1016F000204601F050F9204601F0C0F92046FFF7DE
:10170000BFFF01210323204684F8101184F8123111
:10171000FFF74EFFFFF748FF11E00D4B0D4A009316
:1017200001210A4B084800F0BBFD074801F016FDF7
:101730004CF25030FFF782FE034801F007FD002015
:1017400001E04FF0FF303EBDEC150020803700086F
:1017500058380008C837000870B5254CD4F8E4356F
:10176000002B43D0FFF758FD22480178002939D0DB
:10177000D4F8DC63B608B3B2002B33D01E4A10880D
:1017800081B21BB2C1F5007293422BDA00241B4DCB
:1017900055F82450C5F3031010302946FFF746FCD6
:1017A00090B9174B174A198889B242F82150198805
:1017B0004A1C91B2B1F5007F198028BF18800E48ED
:1017C00003885A1C91B201800134301B03B2002BF4
:1017D000DDDC0849064800220A7040230221074A3E
:1017E00001F038FCBDE87040FFF72ABD70BD00BFB6
:1017F000EC1500205015002046050020AC150020F7
:1018000052150020500D0020234BD3F8E40510B5ED
:10181000002840D0FFF700FD20490A78002A36D181
:101820001F4B188881B2002931D01E4A1078002839
:101830002DD019888AB2102A98BF1988174B94BFE7
:1018400089B210210120187015480288531A9AB2E3
:10185000028000220BB29A4213DA134B13481C8801
:10186000A4B250F82440124840F8224018880130B1
:1018700080B2B0F5007F188001D3002018800132BB
:10188000E8E705480A4A81219B0001F000FCBDE819
:101890001040FFF7D5BC10BDEC1500204C0D00200A
:1018A000561500205A150020581500204C05002020
:1018B0005C150020002814BF4FF0FF300020704757
:1018C0000D49002310B50B800C4C0D4923800B8073
:1018D0000C4C0D4923700B800C4C0D4923801A468B
:1018E0000B800C4C0C4B012110B121701A7001E0DF
:1018F00022701970002010BD4605002052150020EE
:1019000048050020501500205615002044050020F1
:10191000581500205A1500204C0D002038B5184CE1
:101920002378054613B94FF0FF3038BD15480188BC
:101930008AB2B2F5FF7F07D9FFF766FF2378002B45
:10194000F1D06FF0010038BDFFF766FC0E4B0F4978
:10195000188882B2501C41F8225082B21A8019882D
:1019600088B2B0F5007F01D300221A80054B198898
:10197000481C82B21A80FFF763FC002038BD00BF0C
:101980005A15002056150020440500204C05002063
:1019900010B504462046FFF7C1FF831C08D1074B52
:1019A0001A8842F20F718A4207D8501C1880F1E75A
:1019B000002802DB014B00221A8010BD54150020C4
:1019C000124B10B50446188881B2D9B1FFF724FC38
:1019D0000F4B10491A8890B251F8202022601C88C1
:1019E000601C81B2B1F5007F198001D300221A80FA
:1019F000064C2388581E81B22180FFF721FC2288E3
:101A000090B210BD4FF0FF3010BD00BF4605002062
:101A100048050020500D002008B5054801F01EF8CB
:101A200018B9FFF799FEFFF7EFFE002008BD00BFD1
:101A3000EC150020024B00221A70FFF7E5BE00BF34
:101A40004C0D0020024B01221A70FFF785BE00BF2B
:101A50005015002020B10368197001684A1C02600B
:101A600070472DE9F843141E8046894601DC202783
:101A70000FE0002219F8021009B10132FAE7A24280
:101A8000B4BFC2EB04040C4613F0020F0CBF2027B6
:101A90003027DB070CD42546002D05DD40463946AE
:101AA000FFF7D8FF013DF7E724EAE476A41B00E046
:101AB00000263546C6EB0903595D21B14046FFF7C4
:101AC000C9FF0135F6E72646002E05DD40463946BA
:101AD000FFF7C0FF013EF7E7002CACBF2819281C18
:101AE000BDE8F8832DE9FF470C9EDDF83480814680
:101AF0000C4651B930228DF804208DF8051032467D
:101B000001A94346FFF7ADFF35E033B10A2A04D1FE
:101B1000002902DA4C42012700E0002704AD00232F
:101B200005F8013DAA466CB1B4FBF2F302FB134485
:101B3000092C02DD0E993A396418303405F8014D4C
:101B40001C46EFE787B14EB118F0020F06D04846A9
:101B50002D21FFF77FFF013E012705E02D2005F134
:101B6000FF3A05F8010C00274846514632464346E5
:101B7000FFF777FF381804B0BDE8F087F0B589B0FB
:101B800006460D46059200242B7823B1252B79D1EA
:101B900068786A1C28B9002E7BD030680022027059
:101BA00077E025286DD02D2802D1AA1C012300E062
:101BB0000023174601323978302902D143F002035D
:101BC000F7E700223978A1F130005FFA80FC3D464A
:101BD0000137BCF1090F03D80A2505FB0202F1E722
:101BE000732909D1059F391D059139682A4F30465F
:101BF000002908BF394641E064290ED18DE80C0068
:101C0000059961230293081D096805900A22304650
:101C10000123FFF767FF241839E0782906D10599D9
:101C2000081D8DE80C000590612207E058290AD1B3
:101C30000599081D8DE80C0005904122029230465E
:101C4000096810220BE075290BD18DE80C0005996D
:101C500061230293081D096805900A22304600237B
:101C6000D7E7632913D10599081D0968059000205D
:101C70008DF81C108DF81D0007A93046FFF7F1FE06
:101C8000C9E7154630462978FFF7E4FE01340135EF
:101C90007AE7204609B0F0BD743800080EB40FB5DD
:101CA00005AA019052F8041B01A80392FFF766FFF2
:101CB00004B05DF804EB03B07047000040F0BF6073
:101CC000024B40F40031D960704700BF00ED00E0E6
:101CD00021F0604121F07F02014B10439860704772
:101CE00000ED00E0014B5861704700BF003C01402F
:101CF000024B1A6842F4006018607047003C0240D2
:101D0000024B1A6842F4805018607047003C024051
:101D1000044B1A69002A04DA034800F1883158603C
:101D200059607047003C024023016745024B1A6925
:101D300042F0004018617047003C0240014BD860FF
:101D4000704700BF003C02400B4BDA68D0030DD453
:101D5000D868C1060CD4D96811F0EF0F0AD1DB683E
:101D600013F0020F0CBF08200720704701207047B6
:101D70000520704706207047003C024007B5082345
:101D80008DF80730FFF7E0FF8DF807009DF807009A
:101D90000128F7D09DF807000EBD000070B505467C
:101DA0000E46FFF7EBFF082813D10A4C236923F4F2
:101DB00040702061216941F400722261236943F07F
:101DC000010020612E60FFF7D9FF216921F0010297
:101DD000226170BD003C024070B5064641B1012948
:101DE00008D0022914BF4FF440754FF4007503E08A
:101DF0000D4601E04FF48075FFF7C0FF08281ED1A3
:101E00000F4C236923F44070206121690D43256143
:101E1000226922F0F8032361206940F002010E4399
:101E20002661226942F480332361FFF7A7FF21690D
:101E300021F002022261236923F0F801216170BDC3
:101E4000003C0240F0B50E680022012303FA02F3C1
:101E500003EA06059D423ED107680C79530027FA34
:101E600003F707F00307A7420DD007684FF0030CF4
:101E70000CFA03FC27EA0C070760076804FA03FC66
:101E80004CEA07070760013C012C17D88768032438
:101E900004FA03F427EA040787604C79876804FA98
:101EA00003F43C438460446824EA05058C7945606A
:101EB000456804FA02F4A4B22C434460C5680324C4
:101EC00004FA03F425EA0405C560CD79C46805FA6F
:101ED00003F32343C3600132102AB6D1F0BD0021C1
:101EE0004FF6FF730360017141718171C1717047D9
:101EF00001F00703C908083130B59B0050F82150A4
:101F00000F2404FA03F425EA040440F8214050F8B1
:101F1000214002FA03F2144340F8214030BD000092
:101F2000044B1A6B09B1104301E022EA0000186368
:101F3000704700BF00380240044B5A6B09B1104390
:101F400001E022EA00005863704700BF00380240F9
:101F5000044B1A6C09B1104301E022EA0000186436
:101F6000704700BF00380240044B5A6C09B110435F
:101F700001E022EA00005864704700BF00380240C8
:101F8000044B1A6909B1104301E022EA000018610C
:101F9000704700BF00380240044B5A6909B1104332
:101FA00001E022EA00005861704700BF003802409B
:101FB000044B1A6A09B1104301E022EA00001862DA
:101FC000704700BF00380240044B5A6A09B1104301
:101FD00001E022EA00005862704700BF003802406A
:101FE0001C4A038890429BB212D002F58062904254
:101FF0000ED0B0F1804F0BD0A2F58032904207D0C6
:1020000002F58062904203D002F58062904203D1D3
:102010004A8823F0700313430F4A904208D002F518
:102020008062904204D023F440730A899BB2134328
:1020300003804B680A88C362064B0285984203D02E
:1020400003F58062904201D1897A0186012383825F
:10205000704700BF0000014000100040038819B124
:1020600099B241F0010303E023F001010A04130CCB
:102070000380704783899BB20AB1194301E023EAC8
:10208000010181817047038A828911EA030092B2BB
:1020900003D011420CBF002001207047C9438AB20F
:1020A00002827047D0F8E83510B5044618698047B9
:1020B000032184F81211002010BD08B590F81231E8
:1020C000042180F8133180F81211D0F8E805C268B5
:1020D0009047002008BD08B5D0F8E435D96901B1B2
:1020E0008847002008BD08B5D0F8E435196A88474C
:1020F000002008BD08B5D0F8E435596A88470020AB
:1021000008BD002110B5402204460B4600F068FFD0
:10211000802140220023204600F062FFD4F8E80529
:10212000012384F812314168A0788847002010BD4F
:1021300013B56946044600F023F99DF8001001F03C
:102140001F03012B0CD006D3022B0ED1204669466B
:1021500000F046F90EE02046694600F0BBF909E0C0
:102160002046694600F09EF904E0204601F0800117
:1021700000F0A8FF00201CBD70B50446002947D11F
:1021800090F81131022B37D1D0F83821D0F8243112
:102190009A4211D9D21AC0F83821C078012804D146
:1021A000D4F82811CB18C4F828312046D4F82811C7
:1021B00092B200F0B5F81FE0D0F83C51B5FBF3F651
:1021C00003FB16565EB99D4209D3D0F840219542D3
:1021D00005D2324600F0A4F8C4F840610CE0D4F80F
:1021E000E405C16829B194F81231032B01D12046CE
:1021F0008847204600F0B5F894F81621012A10D13E
:10220000094920690B680022436084F8162108E020
:10221000D0F8E4355B6923B190F81221032A00D18C
:102220009847002070BD00BFE01B002010B5044699
:1022300059BB90F81111032930D1D0F89023D0F870
:102240007C339A4214D9D21AC0F89023C07801285E
:1022500004D1D4F88013C818C4F880039A4228BF68
:102260001A462046D4F8801392B200F062F815E0C6
:10227000D0F8E4150B6923B190F81221032A00D19C
:102280009847204600F05EF808E0D0F8E4359B69F6
:1022900023B190F81221032A00D19847002010BDE5
:1022A0002DE9F041069F0446164698460D46FFF775
:1022B00099F920462946C4F8E485C4F8E875C4F8BD
:1022C000EC6500F042FED4F8E835186880472046F7
:1022D000BDE8F041FFF7D4B9D0F8E43510B50446B5
:1022E0001A689047D4F8E80581688847002010BD37
:1022F00008B5D0F8E4355A689047002008BD38B5D5
:1023000004460D46C4F83C21C4F838211346022285
:1023100080F8112100212A4600F0B9FE002038BDC6
:1023200010B50C4613460021224600F0B0FE0020F6
:1023300010BD10B50C4613460021224600F08AFE5F
:10234000002010BD0021042310B50A46044680F881
:1023500011310B4600F09BFE204600F0D8FD002016
:1023600010BD0021052310B50A46044680F811313E
:102370000B4600F06FFE204600F0C9FD002010BDA6
:1023800090F8CC350B7090F8CD254A7090F8CE358A
:1023900090F8CF2503EB02224A8090F8D03590F8D0
:1023A000D12503EB02228A8090F8D23590F8D3250C
:1023B00003EB022293B2CB800121C0F8403180F8B8
:1023C0001111704710B58021044600F07BFE2046B5
:1023D000002100F077FE2046BDE8104000F097BDD8
:1023E00070B54E788A88012E04460D46D3B211D0BE
:1023F00029D3032E51D190F81221022A2AD0032A80
:1024000049D14988A9B9A3B1802B12D0194600F04F
:1024100059FE0EE090F81221022A1BD0032A3AD16D
:102420004988002939D153B1802B08D0194600F0D2
:1024300067FED4F8E405294683682046984720467D
:10244000FFF780FF29E090F81251022D02D0032DF2
:1024500021D106E00BB3802B1FD0194600F032FECD
:102460001BE012F0800F4FF0280006D002F07F0230
:1024700000FB024191F81E3103E000FB034393F897
:102480007633074803B10123036005492046022241
:10249000FFF735FF01E0FFF795FF002070BD00BF9B
:1024A000A415002038B590F81231032B04460D46D0
:1024B0000CD10A79012A09D8D0F8E4359A689047F6
:1024C000E88828B92046FFF73DFF01E0FFF77AFFD3
:1024D000002038BD70B54B78052BA2B004460D46E0
:1024E00000F0838008D8012B00F01581C0F0DA805D
:1024F000032B40F03381E6E0082B00F0C58003D8C1
:10250000062B40F02B8106E0092B00F08E80552B26
:1025100040F024810FE14888010A4B1E062B00F28F
:102520001D81DFE813F007001A0027001B011B01C3
:102530001B011B01D4F8EC15A0780A680DF1060107
:1025400090470146E888402803D094F81231012BC7
:102550003BD10822ADF8062037E0D4F8E4050DF1B0
:102560000601826AA0789047022343700146C4F8AE
:10257000F0052AE0C1B2A07805291FD8DFE801F0F4
:1025800003070B0F1317D4F8EC25536812E0D4F8A7
:10259000EC158B680EE0D4F8EC35DB680AE0D4F873
:1025A000EC25136906E0D4F8EC154B6902E0D4F889
:1025B000EC2593690DF10601984705E0D4F8E43560
:1025C0000DF10602DB6A98470146BDF806000028B7
:1025D00000F0C880EA88002A00F0C480824228BF48
:1025E0000246ADF806202046B5E08A88002A40F071
:1025F000B580C988002940F0B1806E8890F812211A
:1026000006F07F03032A1E4600F0A88080F81431EC
:10261000194600F093FD2046FFF794FE0EB102200C
:1026200000E0012084F812019CE08B784F4A012BD6
:10263000137000F2938090F81221022A03D0032A2B
:1026400040F08E8008E0002B61D00121032380F848
:10265000101180F8123114E043B9022180F81211F0
:1026600080F810311946FFF743FE50E090F8101142
:1026700001294CD0FFF73CFE3C480178204684F805
:102680001011FFF729FE42E0CA88012A66D190F8AE
:102690001231022B04D0032B62D100F588715AE06D
:1026A000334958E090F81221931E012B58D8314835
:1026B000D4F81821002101600AB1022303602046EA
:1026C0002C49022247E04B88012B2DD0022B49D107
:1026D0008A8812F0FF0F45D10069110A4A1E43682B
:1026E000042A0FD8DFE802F0030507090B000120D8
:1026F00006E0022004E0032002E0042000E00520C0
:1027000060F306131C490B60012384F81631204640
:10271000FFF718FE26E090F81221931E012B1FD818
:102720004A88012A1ED10023D4F8E425C4F81831C0
:1027300093689847EBE70978C0290FD16B886BB98C
:10274000EE88802E0AD10D49324602A800F05AFFC9
:10275000204602A93246FFF7D2FD03E02046294673
:10276000FFF730FE002022B070BD00BFA015002092
:10277000A81500209C150020E01B00207B380008D5
:1027800030B5C0B10023C55CDCB20133002DFAD1F5
:10279000631C5B00138003220B704A700138022314
:1027A00010F8012F3AB15C1CCA54E2B20233002483
:1027B0008C54DBB2F4E730BD37B50023104C0193E5
:1027C00005460320FEF766FFE8680269013C0192B6
:1027D00013D001990029F4DA019B43F00102019220
:1027E0000199074A01610369013A019302D00199F5
:1027F000C907F8D40320FEF74DFF00203EBD00BFFF
:10280000410D030030B5C4786CB900EB820003338E
:10281000D0F8D0509B1022469A4204D051F82200A2
:1028200001322860F8E7002030BD10B50332D0F83F
:10283000D0409210002393424FEA830004D02068D6
:1028400041F823000133F6E7081810BDF0B5002366
:10285000012240240129C370827084800CD102239C
:10286000082604224FF4A0740372C17206704270ED
:10287000C4804FF0A04309E041B90C23C17203703A
:1028800006214FF4A065204B4170C58003F500611F
:1028900045780161C3600246194600240432AC4207
:1028A00001F1200608D201F5106701F530611165CC
:1028B000576101343146F1E703F5806403F588611F
:1028C00044610478C0F8CC10002203F5A061A24254
:1028D00006D200EB82050132C5F890102031F6E7F0
:1028E00003F580510022A24207D200EB820501329B
:1028F000C5F8D01001F58051F5E703F56063C0F825
:102900000C310020F0BD00BF0000044038B5037A50
:102910000025012B0446C3681FD1986B617A65F3CB
:10292000104009B140F480109863DA686FF38612A2
:102930006FF396526FF351426FF3D342DA60204641
:10294000FFF73AFFE378012B19D1052161F3440524
:10295000E06845F02005856011E0DA6842F040014A
:10296000D960FFF729FF607AE36800280CBF4FF4B5
:1029700034124FF474129A631420FEF78EFEE2783C
:10298000012A06D1E368996821F03E0040F02A024E
:102990009A60002038BDC3689A6842F001009860D0
:1029A00000207047C3689A6822F0010098600020F8
:1029B0007047000007B500230193019A42F02003FD
:1029C0000193019A094B61F38A120192C26801983E
:1029D00010611169013B019102D001988006F8D481
:1029E0000320FEF757FE00200EBD00BF410D03007F
:1029F00007B500230193019941F010020192C068CC
:102A0000019B074A03610169013A019102D0019BD0
:102A1000D906F8D40320FEF73DFE00200EBD00BF0E
:102A2000410D0300C26808B5D36801296FF35D73D7
:102A30006FF39E7302D143F0005302E009B943F0F3
:102A400080433220D360FEF728FE002008BDC36813
:102A5000586900F0010181F001007047C3685869AE
:102A600000F001007047C3685A69986910407047C8
:102A700003691A6861F301021A60704710B5C368F0
:102A800000226FF080414FF0FF349A6159615C6021
:102A900059610A499961C07890420CBF10211146D2
:102AA00041F4872040F00811986941F4401120EA70
:102AB000010001439961104610BD00BF000800806D
:102AC00038B5D0F80C31016900221A6015460A6841
:102AD00065F3CC220A60C37A012B04461BD1032183
:102AE000FFF7C6FFE068C02380214FF4800263F344
:102AF0000F05416261F31F4561F30F024FF4A071AE
:102B00008262C0F8045161F30F056FF31F45C0F8EE
:102B10000851C0F80C5110212046FFF74BFF20460A
:102B2000FFF766FF206900234FF0FF320361436126
:102B30008261C36161788B4214D204EB830201335A
:102B400090690168C1F3076202F08001CAB2002AED
:102B500014BF4FF09041002101600022FF2102616B
:102B60008160E7E700236078834214D204EB83009E
:102B70000133426D1168C1F3076000F08001C8B2F3
:102B8000002814BF4FF09041002111600020FF2168
:102B900010619160E7E723691A6942F48071196155
:102BA000E078012804D1054A402161F359421A63B3
:102BB0002046FFF763FF002038BD00BF030101007E
:102BC00003699868C0F341014B1E022B02D8024AE8
:102BD000D05C704703207047FB38000803698169A7
:102BE00010B59C680A68C4F34100022802D06FF354
:102BF0000A0202E0032060F30A020A60596841F405
:102C000080725A60002010BD30B54D780B780022DC
:102C1000012D00EB830405D105FA03F5A46965F3E2
:102C20000F0205E0012505FA03F3646D63F31F420B
:102C30002368C3F3072505F08005EDB26DB98D68F3
:102C400065F30A03CD78C98865F3934361F399531B
:102C500043F0805343F4004121600069C3691A4383
:102C6000C261002030BD30B54D780B780024012DB5
:102C7000224600EB830105D105FA03F3896963F36A
:102C80000F0205E0012505FA03F3496D63F31F42C6
:102C900000696FF3CF340C60C16921EA0202C2619E
:102CA000002030BD70B54E780A78012E0B4600EB3F
:102CB000820148D18D695C6929682A6964F312022E
:102CC00014B966F3DC420BE09E68A419013CB4FB26
:102CD000F6F6DC7866F3DC42012C08BF64F35E7222
:102CE0002A61C278012A06D11A7800EB82041A6997
:102CF000A46962610CE0DA78012A09D05A693AB114
:102D000002691C78556B012606FA04F42C435463BF
:102D1000DA78012A07D102699268D20554BF41F0DE
:102D2000005141F080511A7800EB820241F00441D9
:102D300092691160D978012937D1D9681A789B8AAC
:102D4000FFF760FD31E04D6D5E692A689C68296976
:102D50002EB964F31201012464F3DC410AE0361950
:102D6000013EB6FBF4F666F3DC41B605B60D7443DE
:102D700064F312012961C178012905D11C7800EBA7
:102D800084014C6D19696161D978012906D159799D
:102D900011B142F0005201E042F080521B7800EB8A
:102DA000830042F00441426D1160002070BD73B594
:102DB0004D78012D3DD183694A691E681C690094D4
:102DC000E4B242B962F306049DF802208DF8004097
:102DD00065F3C4020EE08D68AA428ABF4D6162F3BA
:102DE000060465F306049DF802208DF800400124D6
:102DF00064F3C4028DF80220009A1A61C278012A95
:102E000005D10C7800EB840294690A69626146F08E
:102E100004461E60C378002B34D14A69002A31D0A1
:102E200003690A78586B012101FA02F202435A63DE
:102E300028E00B784E6900EB8302536D8A681D68A9
:102E40001C690094E4B206B14A6162F306049DF87D
:102E500002208DF80040012464F3C4028DF80220A2
:102E6000009A1A61C378012B05D10A7800EB82031E
:102E70005A6D0B695361097800EB810045F00445F8
:102E8000426D156000207CBD4B780978012B00EB6A
:102E900081000DD180690368C3F3076202F08001ED
:102EA000CAB20AB143F0804343F40011016004E068
:102EB000436D1A6842F400111960002070474B7886
:102EC000012B0B78C97800EB83000CBF8269426D3F
:102ED0001368881E6FF35553012898BF43F0805341
:102EE00013600020704703699A69D8691040000C8C
:102EF000704700EB810102694B6D99685069084089
:102F0000704703699869D969084080B2704782B0F8
:102F100000230093C021012200238DF8031062F3E7
:102F2000C40318218DF802308DF80010436D009A0B
:102F30001A61C178012906D100F2CC5058611A6893
:102F40004FF080221A6002B0704710B50446FFF7B8
:102F50007DFC012384F81231002384F81431627857
:102F6000934213D2282202FB034101F58E72012005
:102F700081F81D0181F81C31A1F822314020002187
:102F8000D1709060D16051610133E8E7002360782F
:102F9000834213D2282101FB034000F55D7200211A
:102FA00080F87433A0F87A3380F8751380F87713BB
:102FB00040209060D16051610133E8E72046FFF77F
:102FC000F1FC2046FFF7A2FC00212046FFF72AFD76
:102FD0002046FFF775FD2046BDE81040FFF7DBBC3B
:102FE00070B5CDB201F07F044FF0280606FB040453
:102FF00015F0800F14BF04F58E7404F55D7401F0B4
:103000007F01ED0921706570A260E37005B1E18078
:10301000022B01D1002323712146FFF7F5FD00208B
:1030200070BD10B5CAB201F07F034FF0280404FB55
:10303000030312F0800F14BF03F58E7303F55D7365
:1030400001F07F01D20919705A701946FFF70BFE83
:10305000002010BD38B501F07F04282505FB0405CC
:1030600005F55D7185F874434B610023CA608B617F
:103070004B70C378012B05F55C7508BF0A6114B964
:10308000FFF795FE01E0FFF70DFE002038BD70B59B
:1030900001F07F04282505FB040505F58E71012646
:1030A000CA600A61002285F81C414E7005F58C75D6
:1030B0008A614B6114B9FFF77AFE01E0FFF7F2FD78
:1030C000002070BDCAB212F0800F10B54FF0280377
:1030D00006D001F07F0403FB040303F58E7303E0C5
:1030E00003FB010404F55D73D209012401F07F01A3
:1030F00019709C705A701946FFF7C6FE002010BD6B
:10310000CAB212F0800F10B54FF0280306D001F0BC
:103110007F0403FB040303F58E7303E003FB010448
:1031200004F55D730024D20901F07F0119709C70D1
:103130005A701946FFF7C3FE204610BD02690023EE
:1031400061F30A1311680B431360704703695A68EF
:1031500003206FF341025A60FEF79FBA03695A6871
:1031600042F0020058600320FEF797BA2DE9F04FB5
:1031700085B00446FFF76BFC08B900203AE2204610
:10318000FFF771FC07460028F7D0C0F3074A0AF0A2
:103190000800C0B2002856D02046FFF7A4FEA34680
:1031A000804626464FF00009B8F1000F4AD018F0CB
:1031B000010F3FD05FFA89F3194620460093FFF7CD
:1031C00098FE10F0010F0546009B20D0706D012580
:1031D0008560E178A94207D10269DBF87C13C2F36C
:1031E00012000A1ACBF88C237148016820460A683D
:1031F00019469047E378012B09D1B9F1000F06D1A8
:1032000094F81101052802D12046FFF780FE05F051
:103210000201CAB212B1736D02259D6005F008006B
:10322000C1B239B1624A15682046AB689847706DE3
:103230000821816009F101094FEA580804360BF1B1
:10324000280BB1E701200AF0040A5FFA8AF3002B89
:1032500000F0B1802046FFF754FE264681464FF02D
:103260000008B9F1000F00F0A58019F0010F00F07F
:1032700099805FFA88FA236904EB8A0019695D6B0B
:10328000826925FA0AF59068EA01D5B20D43054036
:10329000EA071BD5586B464A012505FA08F120EAD2
:1032A00001005863B36910689D6051464368204629
:1032B0009847E178A94209D1B8F1000F06D194F8F6
:1032C0001121042A02D12046FFF721FE05F0080053
:1032D000C3B213B1B16908258D6005F01002D0B2F8
:1032E00010B1B36910259D6005F04001CAB212B15A
:1032F000B0694025856005F00203D9B211B1B26909
:103300000225956025F07F0010F0FF0F4AD028239A
:1033100003FB084101F58C75019504356869AB69BB
:10332000AA68C11AB069914238BF0A4602F1030C7B
:1033300082694FEA9C0C93B2634530D9A9696A69E6
:1033400091422CD25AB3A868C1EB020B834528BF27
:1033500083460BF1030E4FEA9E0CE968CDF800C0DE
:1033600052461FFA8BF32046FFF74CFAEB68AA6926
:10337000DDF800C003EB0B010BEB0200E960A86174
:103380006969B36988429A69D5D301982569027938
:103390006B6B012101FA02F023EA00036B63B5694C
:1033A0008022AA6008F101084FEA5909043658E75B
:1033B000040000200120FDB205F00201CAB212B1E2
:1033C000E36802215961C7F3076202F08003D9B2B2
:1033D000C9B1A07A40B1D4F80C31D4F80C216FF304
:1033E00041036FF3000313602169844A486820F0A9
:1033F00001034B60116820468B699847E0684FF0E5
:10340000004242610120C7F3072808F00801CBB24F
:103410006BB37A4994F812210B6800208DF80F00E5
:103420008DF80F2020465A6990472069E36882682A
:103430004FF400615961A07AC0B1D30716D594F852
:103440001521012A12D19DF80F30032B0ED1D4F88B
:103450000C11086840F001020A600B6843F0030099
:10346000086067490A6942F006030B61012005F014
:103470000801CAB242B1614803682046D96888474A
:10348000E06808224261012005F01005EDB2002D30
:1034900035D0E668B36923F01001B161366A28229D
:1034A00006F00F00C6F3434302FB0045022B05F56F
:1034B0005D750DD0062B1CD104F2CC51204608229C
:1034C000FFF7B3F9A969C6F30A168819A86110E0D5
:1034D00047F6F072324062B1C6F30A16E968324626
:1034E0002046FFF7A2F9EB68A86999198619E960E7
:1034F000AE61E3689A6942F010019961012008F019
:103500001003DAB2002A34D026697068002520F052
:103510000101716020462946FFF74CFA23462A46EE
:1035200066780433B24206D25E69FF21B160186D3D
:1035300001328160F4E70126206966F30F050B2153
:103540004FF0FF3266F31F458261C5614161016141
:1035500003686FF30A1303602046FFF7D8FC27497E
:10356000E0680B684FF4805242611A692046904728
:10357000304608F020085FFA88F1E9B12046FFF7ED
:103580002DFBE5682046ED68FFF71AFB032806D1FE
:1035900000214FF40070A170A080092204E00120F6
:1035A0004023A070A3800522E36862F38D254FF4C9
:1035B0000052DD6001205A61C7F3074707F0100190
:1035C000CBB24BB10D4802682046D1698847E36809
:1035D0004FF480105861012007F02007FFB24FB16F
:1035E000064A116820460B6A9847E0684FF40012BB
:1035F0004261012005B0BDE8F08F00BF040000204B
:1036000000ED00E010B50023934203D0CC5CC4541D
:103610000133F9E710BD0000000002408000000007
:10362000000402400080000000040240200000006E
:1036300000000240200000000004024000200000C2
:1036400000040240080000000004024004000000E2
:10365000000C0240000800000004024000100000BE
:10366000000C024000040000000002400080000046
:103670000004024000010000FFFFFFFF0000000007
:1036800000000000004000080800000000000000EA
:1036900000800008100000000000000000C00008CA
:1036A00018000000000000000000010820000000D9
:1036B00000000000000002082800000000000000D8
:1036C00000000408300000000000000000000608B0
:1036D0003800000000000000000008084000000062
:1036E0000000000000000A08480000000000000080
:1036F00000000C08500000000000000000000E0850
:103700005800000000000000000002030301020353
:1037100003030303020203014D494F5333320053A5
:10372000544D33324634444953434F564552590061
:1037300053544D3332463478780025303878003F82
:10374000002564004D494F53333220426F6F746C33
:103750006F6164657200286329203230313420544F
:103760002E204B6C6F7365002025303258002020CE
:103770002000253038582000F000007E3200000084
:10378000B11500088D15000877140008000000002E
:103790007B1400087B150008691500080000000074
:1037A000000000000000000081140008351500082A
:1037B000040309041201000200000040C016FE03C9
:1037C00010100102030100005514000861140008E4
:1037D0003D150008C51400088D14000831150008B7
:1037E0002D1500083432006D696469626F782E6FA0
:1037F00072670009026500020104803209040000BA
:10380000000101000209240100010900010109046D
:103810000100020103000207240100014100062407
:10382000020101000624020202000924030103012F
:10383000020100092403020401010100090502023A
:10384000400000000005250101010905810240003A
:1038500000000005250101036D1400086F14000825
:10386000A9150008731400087514000871140008E5
:10387000A3150008286E756C6C2900D10FED54CF8C
:10388000C5FBB89752389138910E7D0FED389301F2
:10389000910E9100C11F020E91F7041040006E10AE
:1038A0006EE76A0000000000000000000000000059
:1038B0000000000000000000000400000000000004
:1038C000000000000000002F55461F00D848403778
:1038D0006AF76A00300000C7062E734A2C137BE992
:1038E0007F32002A280D9BFE0B21EF422A2F73B551
:1038F000B8DA76E679BF0FEB793E0B0201020000E1
:1039000010100000080000202D2200087921000876
:1039100031210008D720000803210008BB2000083F
:10392000A5200008E7200008F5200008000000009E
:103930000000000000000000FFFFFFFFFFFFFFFF8F
:10394000FFFFFFFFFFFFFFFFFFFFFFFFFFFFFFFF87
:10395000FFFFFFFFFFFFFFFFFFFFFFFFFFFFFFFF77
:10396000FFFFFFFFFFFFFFFFFFFFFFFFFFFFFFFF67
:10397000FFFFFFFFFFFFFFFFFFFFFFFFFFFFFFFF57
:1040000000000220810F01087D0F01080906010848
:104010007D0F01087D0F01087D0F010800000000E1
:10402000000000000000000000000000610C01081A
:104030007D0F010800000000D10C01080D0D0108E2
:104040007D0F01087D0F01087D0F01087D0F01081C
:104050007D0F01087D0F01087D0F01087D0F01080C
:104060007D0F01087D0F01087D0F01087D0F0108FC
:104070007D0F01087D0F01087D0F01087D0F0108EC
:104080007D0F01087D0F01087D0F01087D0F0108DC
:104090007D0F01087D0F01087D0F01087D0F0108CC
:1040A0007D0F01087D0F01087D0F01087D0F0108BC
:1040B000A5230108C92301087D0F0108F134010877
:1040C000FD340108D9340108E53401087D0F0108E9
:1040D0007D0F01087D0F0108353201089532010876
:1040E0007D0F01087D0F01087D0F01087D0F01087C
:1040F0007D0F01087D0F01087D0F01087D0F01086C
:104100007D0F01087D0F0108ED2301087D0F0108D7
:104110007D0F01087D0F01087D0F01087D0F01084B
:104120007D0F01087D0F01087D0F01087D0F01083B
:104130007D0F01087D0F01087D0F01087D0F01082B
:104140007D0F01087D0F01087D0F0108BD260108C4
:104150007D0F01087D0F01087D0F01087D0F01080B
:104160007D0F01087D0F01087D0F01087D0F0108FB
:104170007D0F01087D0F01087D0F01087D0F0108EB
:084180007D0F01087D0F01080D
:020000040801F1
:100000000146062002F08CB91FB54FF0FF3002F018
:10001000EFF80521002002F05FF90120052102F030
:100020005BF90224E0B20321013402F055F9062CF9
:10003000F8D10521204602F04FF90D4B0D48002262
:100040001A705A7000F11801002303704370837016
:1000500003308842F8D102228DE80C00029303930A
:10006000054906484FF4807200F000FB1FBD00BF39
:10007000C5050020AD050020C47901085D03010815
:100080007047704708B50120FFF7BAFF00BF00BFF7
:1000900000BF00BF00BF00BF00BF00BF00BF00BF68
:1000A00000BF00BF00BF00BF00BF00BF00BF00BF58
:1000B00000BF00BF00BF00BF00BF00BF00BF00BF48
:1000C00000BF00BF00BF00BF00BF00BF00BF00BF38
:1000D00000BF00BF00BF00BF00BF00BF00BF0020C7
:1000E000FFF78EFF00BF00BF00BF00BF00BF00BF13
:1000F00000BF00BF00BF00BF00BF00BF00BF00BF08
:1001000000BF00BF00BF00BF00BF00BF00BF00BFF7
:1001100000BF00BF00BF00BF00BF00BF00BF00BFE7
:1001200000BF00BF00BF00BF00BF00BF00BF00BFD7
:1001300000BF00BF00BF00BF00BF00BF00BF00BFC7
:1001400000BF00BF00BF00BF00BF00BF00BF00BFB7
:1001500000BF00BF00BF00BF00BF00BF00BF00BFA7
:1001600000BF00BF00BF00BF00BF00BF00BF00BF97
:1001700000BF00BF00BF00BF00BF00BF00BF00BF87
:1001800000BF00BF00BF00BF00BF00BF00BF00BF77
:1001900000BF00BF00BF00BF00BF00BF00BF00BF67
:1001A00000BF00BF00BF00BF08BD08B50120FFF7BA
:1001B00027FF00BF00BF00BF00BF00BF00BF00BFE0
:1001C00000BF00BF00BF00BF00BF00BF00BF00BF37
:1001D00000BF00BF00BF00BF00BF00BF00BF00BF27
:1001E00000BF00BF00BF00BF00BF00BF00BF00BF17
:1001F00000BF00BF00BF00BF00BF00BF00BF00BF07
:1002000000BF00BF00BF00BF00BF00BF00BF00BFF6
:1002100000BF00BF00BF00BF00BF00BF00BF00BFE6
:1002200000BF00BF00BF00BF00BF00BF00BF00BFD6
:1002300000BF00BF00BF00BF00BF00BF00BF00BFC6
:1002400000BF00BF00BF00BF00BF00BF00BF00BFB6
:1002500000BF00BF00BF00BF00BF00BF00BF00BFA6
:1002600000BF00BF00BF00BF00BF00BF00BF00BF96
:1002700000BF00BF00BF00BF00BF00BF00BF00BF86
:1002800000BF00BF0020FFF7BBFE00BF00BF00BFE4
:1002900000BF00BF00BF00BF00BF00BF00BF00BF66
:1002A00000BF00BF00BF00BF00BF00BF00BF00BF56
:1002B00000BF00BF00BF00BF00BF00BF00BF00BF46
:1002C00000BF00BF00BF08BD38B50546072445FA8A
:1002D00004F3DB0702D5FFF768FF01E0FFF7D2FE6A
:1002E00014F1FF34F3D238BD38B50A4C04F11805C7
:1002F0002078FFF7E9FF6078FFF7E6FFA078033486
:10030000FFF7E2FFAC42F3D10020BDE83840FFF731
:1003100077BE00BFAD05002000EB8100153011460F
:10032000C2B2102011B100217F2300E00B4600F083
:1003300004BF10B5044604F00101002001F0F0FFF5
:100340000120C4F34001BDE8104001F0E9BF08B549
:1003500002F008F8C0F3830008BD00002DE9F04169
:10036000012000F093FBFFF7BFFF0024012000FAFB
:1003700004F0C0B2FFF7DDFF642002F06BF8FFF776
:10038000E6FF104BE15C80EA010212F0FF08E7B2E1
:10039000064605D10B4FE6550134022CE6D1DFE7C6
:1003A000002548FA05F3DA07E8B206D546FA05F261
:1003B000394602F00102FFF7AFFF0135042DF0D1FD
:1003C000E8E700BFC5050020704707B500F046FA12
:1003D0000190012101A800F083FB00F03FFA019B8E
:1003E000421F934238BF0190FFF7EEFFF1E77047DD
:1003F00007B500F033FA0190012101A800F070FB6D
:1004000000F02CFA019B421F934238BF019001F08B
:100410000DF8034801F0BEFAFFF7E9FFECE700BF73
:100420008300010830B5002085B001F0B3FD002045
:1004300001F0EEFF002001F0EFFC002001F0CAFE09
:10044000002000F0C5FD002002F0ACF9002001F012
:100450002FFB07F063FAFFF7D7FD4FF4FA644FF470
:100460007A7001F0F7FF013CF9D10325234600958E
:100470000194029403940B490B484FF4807200F0EE
:10048000F5F80A4900954FF48072234601940294CE
:100490000394074800F0EAF800F0B2F9204605B0EE
:1004A00030BD00BFD4790108CB030108CF79010822
:1004B000F103010801F0BABCFFF7E2BD10B500245A
:1004C00001346423B4FBF3F203FB124008B900F0DB
:1004D000ADFF094801F05EFA42F21071B4FBF1F38E
:1004E00001FB1342002AEBD101F0E0FEC1430120E1
:1004F00001F0AAFEE4E700BF8300010810B503681D
:1005000041688268C46888B00093036901910292CF
:1005100041698269C06903940493264C059106924F
:1005200007900699244800F031FF204600F02EFF86
:10053000224800F02BFF204600F028FF00992048B9
:10054000204C00F023FF01991F4800F01FFF029983
:100550001E4800F01BFF03991D4800F017FF049987
:100560001C4800F013FF05991B4800F00FFF069987
:100570001A4800F00BFF0799194800F007FF194BC4
:100580001948196800F002FF18491948096800F075
:10059000FDFE184A1848116800F0F8FE1748016877
:1005A000174800F0F3FE2168164800F0EFFEFFF751
:1005B00085FF00BF1B7A0108057A01082F7A010820
:1005C000437A01083CED00E04E7A0108597A0108AF
:1005D000647A01086F7A01087B7A0108107A0108B1
:1005E000867A010838ED00E0927A010828ED00E0F3
:1005F0009F7A01082CED00E0AC7A010830ED00E0B4
:10060000B97A0108C67A01081EF0040F0CBFEFF397
:100610000880EFF30980FFF771BF70470E4B1A682F
:1006200010B5044650600D4801688C4207D20C4A50
:1006300010681B68191DBDE8104000F0D2BA094AC5
:1006400010681B68191D00F0CCFA074801688C423D
:1006500038BF046010BD00BF180100203001002029
:100660003401002078000020000000202DE9F84F20
:1006700083464820884617469A460A9EDDF82C9005
:100680000C9D00F0EDFB0446002800F099801DB998
:10069000B80000F0E5FB054625631DB9204600F0D3
:1006A000A5FB8DE0BA002846A52107F066F9236B6B
:1006B000013F03EB87001022414620F0070704F1B9
:1006C000340007F06AF9042E34BF354604250021B2
:1006D00004F1040884F843104046E562656400F0C4
:1006E00070FA04F1180000F06CFAC5F10502A2617D
:1006F0002461646238465946524600F0A5FA2060EB
:10070000B9F1000F01D0C9F8004000F0C9FA2E4835
:100710000368591C2D4B01601D6815BB1C600368E4
:10072000012B26D12A48142707FB0500013500F0CC
:100730003DFA052DF6D1274F274D384600F036FA01
:10074000284600F033FA254800F030FA244800F03B
:100750002DFA244800F02AFA2349244A0F60156034
:1007600007E0234A106820B91968CA6AB24298BFE4
:100770001C60E36A1F4C204A20681168834288BFCE
:1007800023604C1C14601D4A0124116804FA03F014
:10079000014311600E4A142000FB0320414600F083
:1007A00013FA00F08BFA124B196831B1074802684E
:1007B000D36AB34201D200F063FA2046BDE8F88F55
:1007C0004FF0FF30BDE8F88F5801002018010020DD
:1007D000AC00002040010020980000201C010020F7
:1007E00084000020640000207800002034010020F4
:1007F0007C0000205C0100203C010020380100202A
:1008000030B585B0002400940194029403940B4801
:100810000B494FF480722346FFF728FF0128054655
:100820000AD100F035FA074B07481D60046005B097
:10083000BDE8304000F086BA05B030BD250A010899
:10084000D37A01087C00002030010020024B1A6896
:10085000501C1860704700BF1001002010B500F058
:100860001FFA034B1C6800F029FA204610BD00BF98
:100870003001002038B5314B186800284FD130487E
:1008800001684A1C02600368ABB92E4B2E4A1968F6
:100890001068186011602D4A1168481C10601A68B1
:1008A0002B48116811B94FF0FF3303E01B68DA6879
:1008B000D1684B6803602248254902680B689A4258
:1008C00033D320480268116821B921484FF0FF3125
:1008D00001602AE004681A4AE368DC68116860680D
:1008E000814202D21A4B18601FE0251D284600F0F5
:1008F00090F9A36A1BB104F1180000F08AF9154AB7
:10090000E36A1068012101FA03F101431160124A00
:10091000142000FB0320294600F056F9D1E70F49C7
:100920000A68531C0B60FFF7C5FD0C4A13681BB91E
:10093000BDE83840FFF7BEBD38BD00BF1001002044
:100940003001002078000020340100201401002034
:100950000000002038010020AC00002060000020D2
:1009600070B500F09DF9274B1A68501E18601D687D
:100970000DB1002441E024490C68002CF9D0234B30
:100980001A6802B3DE68F468261D04F1180000F04E
:1009900040F9304600F03DF91D4AE36A1068012134
:1009A00001FA03F1014311601A4A142000FB0320ED
:1009B000314600F009F9184BE46A1968C86A8442A4
:1009C00028BF0125DBE71548016841B1134C2268B7
:1009D0003AB1FFF74FFF23685A1E2260F6E7012D58
:1009E00006D10F4900200860012400F049F904E015
:1009F0000B4C2368012BBCD1F3E700F05FF92046D4
:100A000070BD00BF10010020580100201C01002013
:100A100038010020AC0000201801002060000020F8
:100A20005401002070B5154C2368F3B1144DFFF745
:100A30000DFF2E68FFF794FF002EF4D000F030F980
:100A4000EA68D568281D00F0E4F80E4B1868411ECE
:100A500019602668721E226000F030F9286B00F0E1
:100A6000C5F9284600F0C2F9DDE707480168012909
:100A700001D900F005F9FFF71FFDD4E78000002041
:100A80008400002058010020AC00002038B5044646
:100A900018B9BDE8384000F0F3B8FFF7D7FE0D4BAA
:100AA0001D6865190C4C2068043000F0B2F848B994
:100AB0000A4B19682268D26A012000FA02F221EA80
:100AC000020119602846FFF7A9FDFFF749FF00283A
:100AD000DFD038BD3001002018010020380100208F
:100AE00038B50C460546FFF7B1FE184A2B68116869
:100AF00099421C4402D29C4208D201E09C4207D396
:100B00001068844294BF0020012002E0002000E031
:100B100001202C6090B10E4D2B68181D00F079F863
:100B200048B90C4B19682A68D26A012000FA02F20F
:100B300021EA020119602046FFF770FDFFF710FF60
:100B400018B9BDE8384000F09BB838BD300100202E
:100B500018010020380100200F4B186810B1012245
:100B60000E4B16E00E490A68B2FA82F30D4AD8B26B
:100B70001421C0F11F0301FB032000F108014368A9
:100B80005A68094B42608A4204BF5268426040681A
:100B9000C2681A60704700BF100100205401002095
:100BA00038010020AC0000201801002000F10803EB
:100BB0004FF0FF32002182604360C3600361016037
:100BC000704700230361704743685A688B604A602E
:100BD0005A68916059604160086101684B1C03606C
:100BE00070470A68531C10B501D1036907E000F192
:100BF00008035C682468944201D85B68F9E75A6886
:100C0000086191604A6059608B6001684B1C036009
:100C100010BD436882689A608268536003695968AE
:100C2000814208BF5A60002202611868411E1960A3
:100C30001868704703480068006880F3088862B647
:100C400000DF00BF08ED00E04FF0807300E90A000C
:100C5000002340F80C3C40F8202C4038704700003E
:100C6000064B19680868B0E8F00F80F309884FF068
:100C7000000080F311884EF00D0E7047180100201F
:100C8000024B4FF080521A60704700BF04ED00E045
:100C9000EFF311804FF0BF0181F3118870470020FE
:100CA00008B5FFF7F5FF024B1A68501C186008BD25
:100CB0000400002080F3118870470000034B18687F
:100CC0000138186008B9FFF7F5BF7047040000202D
:100CD000EFF309800C4B1A6820E9F00F10602DE942
:100CE00008404FF0BF0080F31188FFF735FF4FF049
:100CF000000080F31188BDE8084019680868B0E872
:100D0000F00F80F3098870471801002008B5064BE2
:100D10004FF080521A60FFF7BBFFFFF7ABFD0020DA
:100D2000BDE80840FFF7C6BF04ED00E0034B044AEE
:100D300007201A6043F8040C704700BF14E000E07D
:100D40003F900200094B1A6842F47F0010B518600A
:100D5000196841F07F441C60FFF7E8FF044B002452
:100D60001C60FFF767FF204610BD00BF20ED00E0CC
:100D70000400002030B5094A0C2148431318DC88D0
:100D80009D8801FB0424A5809D88DC8801FB05214A
:100D9000CC801B8859044B0C135230BDD405002065
:100DA0002DE9F0410C25104C05FB00F7E6198046B3
:100DB000308805FB0043B3F90010002912DAFFF771
:100DC000D9FF308805FB004213885904480C05FB05
:100DD0000042A2F80280338805FB034529884804B5
:100DE000420CE253BDE8F081D4050020F8B5074677
:100DF000002832D0194C0C253F1BFFF727FDB7FB0D
:100E0000F5F086B237466F433046FFF7C9FFE31966
:100E100059886943625E002A0BDA1A886FEA4240F9
:100E20006FEA5042625259881B8805FB0344618077
:100E30000FE0A08881B205FB01450022EE8098807A
:100E40009A71DA71A6801B886FEA43406FEA5041BD
:100E5000E153BDE8F840FFF783BDF8BDD40500209D
:100E6000F8B50446002800F08380FFF7EFFC082C5B
:100E700007D9A4F109010C23B1FBF3F0821C91B254
:100E800000E001213B4CA28847F6FF761446002083
:100E9000384B0C2505FB023EBEF804706FB1BEF85E
:100EA00000506B04C2EB534080B2884203D3B0427F
:100EB0003CBF144606463A46EAE747F6FF77BE428D
:100EC00008BF144605FB043218BF304617887A0461
:100ED000A446570CE2B1884203D12046FFF74AFFEF
:100EE0003EE0401A14FA80F005FB00F299189F5278
:100EF0004C8084B205FB0CF01A5A51044A0C05FBD5
:100F000002356FEA44416FEA51426C801A5227E081
:100F10006018B0F5557F07DB2246174800F036FA17
:100F2000FFF71EFD3846F8BD2CB901255C705C71D9
:100F30001D701D712C460F4B0C2000FB04F55A1937
:100F40006118D68800FB06370E46B9801768414302
:100F500058185F5051684160926882605E534480C7
:100F6000FFF7FEFC034B0C2000FB0434201DF8BDF2
:100F7000F8BD00BFD4050020FD7B0108FEE700009E
:100F8000684620F007018D4601B500230A4A0B4947
:100F90009818884204D20A49585898500433F5E703
:100FA000084B094A934203D2002043F8040BF8E7A8
:100FB000FFF738FAFEE700BF0000002060000020C5
:100FC0000080010860000020903B00207047000076
:100FD00038B5044600283ED1204A2149214D10232E
:100FE00013700B70204B214A214928601860214D55
:100FF000214B106008601860286001F00DFEC50FDD
:10100000204600F073FD0028B8BF45F0020500201F
:1010100000F0FAFE194A1A4B0028B8BF45F0040543
:10102000002010701978174A60F3070119701070CA
:1010300015480378422B04D114490878010658BF9B
:101040001070134B134900221A8000220023C1E9BB
:101050000023684238BD4FF0FF3038BD0800002043
:101060000A0000206801002060010020900100209B
:1010700094010020800100206C01002070010020FC
:101080007801002072010020D03F0008D13F000805
:10109000740100208801002010F0F00F70B50446A4
:1010A0000D4604D101280CBF194B1A4B1C781A4B62
:1010B0001A6804F00F0672B904F0F000202812D06C
:1010C000302819D0102820D166F307152846BDE82E
:1010D000704001F0A3BE66F30715204629469047ED
:1010E0000028E9D070BD66F3071504F00F0029460B
:1010F000BDE8704000F0A4BD66F3071504F00F00D2
:101100002946BDE8704000F084BE4FF0FF3070BD4E
:101110000A000020080000206001002038B50C46BD
:101120000D09002165F3030164F30F2162F31741F8
:1011300063F31F61FFF7B0FF38BD41F09001FFF787
:10114000EDBF2DE9F04180460E4617460024BC4213
:1011500035D23B1B022B0DD0032B19D0012B19D1FB
:10116000325D052161F3030562F30F2501346FF34E
:1011700017450AE03119305D4A78062363F3030509
:1011800060F30F2562F3174502346FF31F650FE01C
:10119000072000E0042060F303053019335D417837
:1011A000827863F30F2561F3174562F31F650334FB
:1011B00040462946FFF770FF0028C8DA00E000200B
:1011C000BDE8F08130B5A1B0F0238DF80030134BAD
:1011D0007E2232258DF803201A788DF804500024E1
:1011E0000F258DF801408DF802408DF805208DF80F
:1011F000065002AB0D5D5A1E35B101341A4603F894
:10120000015C0133642CF5D1F72102F8011B69461A
:10121000521AFFF796FF21B030BD00BF72010020C7
:1012200000B589B0F0238DF8003000238DF801302F
:101230008DF802307E238DF8033032238DF8043090
:10124000084B8DF806101B788DF80720F7218DF8D4
:101250000810092269468DF80530FFF772FF09B0C2
:1012600000BD00BF720100202DE9F04104230024DD
:101270000E4663F303046FF00F0161F30F246FF365
:1012800017446FF31F64214605469046FFF704FF9D
:101290000E4B07467E201978322260F30F2462F34A
:1012A000174461F31F6421462846FFF7F5FE074304
:1012B0000D2060F30F2466F3174468F31F6428467B
:1012C0002146FFF7E9FE3843BDE8F08172010020B6
:1012D0002DE9F84381468846174652B30D4600264D
:1012E000C8EB0503BB4225D22978042060F3030430
:1012F00031B16B7801F07F0262F30F241BB90DE06E
:1013000061F30F240AE0A97803F07F0060F317442B
:1013100031B101F07F0262F31F6403E06FF3174401
:101320006FF31F6448462146FFF7B6FE03350643B8
:10133000D6E716463046BDE8F88308B500210523F8
:1013400063F303016FF0080262F30F2189B2FFF724
:10135000A3FE08BDF8B5054606F017FB0A4F2A782C
:10136000064640213878FFF77FFF012E044605D955
:101370003878691C721EFFF7ABFF0443024B1878E4
:10138000FFF7DBFF2043F8BD0A0000200FB430B5A3
:10139000A3B0269D284606F0F8FA642801D90E4825
:1013A00013E002AC27AA29462046019202F0DFF999
:1013B000204606F0EAFA0023834205D0E25C02F000
:1013C0007F01E1540133F7E72046FFF7C3FF23B065
:1013D000BDE8304004B07047687C010810B50E4B82
:1013E0001A7802F008010446C8B248B10B490878DF
:1013F000A04205D16FF307021A70094B00221A7040
:1014000008490A680AB12046904721460648FFF776
:10141000BDFF002010BD00BF78010020700100203A
:101420006401002094010020BB7C010810B501F08C
:1014300037FD044600F080FB044300F0E8FC044361
:1014400000F0E0FC054B1A884FF6FF718A4244EA2F
:10145000000001D001321A8010BD00BF74010020CD
:1014600008B5034B1A680AB1904708BD104608BD7D
:1014700068010020114BF7B51C680746E4B1C1F3C1
:101480000764C1F30720C1F307420D4D8DF80640F4
:1014900001F00F0100246E5C8DF804008DF805202A
:1014A0002546B54208DA01AA044B515D1B6838464F
:1014B000984701350443F4E72046FEBD680100204B
:1014C000587C0108012803D0034B18700020704796
:1014D0004FF0FF30704700BF0A00002030B50B46C8
:1014E00011465A4A15780D2D8BB0044657D001D8B5
:1014F0003DB19AE00E2D00F0A5800F2D40F09580B3
:1015000087E0534A1BB1012B03D111709AE013708D
:1015100098E01178052928D010D802291FD003D8C7
:10152000012938D14B491BE003291CD0042932D1B1
:1015300000F0C6FC48490246684623E0082926D048
:1015400006D8062919D0072925D100F0C7FC16E0D6
:1015500009291ED07F291ED100F070FC72E03F499E
:10156000FFF730FE6EE03E49FAE7684600F0BAFC4D
:101570000028204609DA3B49F2E700F0A7FC3A4987
:101580000246684602F0E4F820466946E8E7374933
:10159000E6E73749E4E720460E210D2242E0354DCB
:1015A00013B1012B15D102E0FF2129704AE02B78FD
:1015B000FF2B01D1297045E01BB1012B42D12E4AEE
:1015C00000E02E4A1368002B3CD02D480078984745
:1015D00038E02A78A2B90F21FFF722FE29780029E6
:1015E00030D1264A106868BB264D20462D78FFF77B
:1015F00069FF2548FFF7AEFE2846FFF763FF21E0AD
:10160000012A02D11C480368E3B920460E211022AA
:1016100008E01E4A0BB1012B01D1536012E0526861
:1016200082B92946FFF7FCFD0CE00E210A46204650
:10163000FFF7F6FD15480549037800226FF307030D
:1016400003700A7000200BB030BD00BF64010020A1
:1016500071010020017D0108247D0108087D010839
:101660001A7D0108297D01082B7D01082E7D0108C6
:101670003B7D0108090000206C0100208001002052
:10168000700100200A0000204B7D01087801002035
:10169000F72910B50A465AD82E4B197801F00803DD
:1016A00003F0FF041BB12C4B1B7883424CD1A0F1FB
:1016B0001103062B48D9284B187004BB2548037822
:1016C00003F00703042B03D82448C05C904221D1C7
:1016D00001F00701052903D121480178914219D170
:1016E0005A1C1C4B197802F0070060F30201052810
:1016F00019702CD9CAB242F00800187027E01306FE
:1017000011D5F72A06D101F01001CBB213B1022195
:10171000FFF7E4FE0F4B134A197800206FF307011F
:101720001970107010BD01F01004E4B244B9094BF7
:10173000197841F0100119700A4B21461A7000E027
:101740000121FFF7CBFE02E04FF0FF3010BD00207B
:1017500010BD00BF7801002070010020A17D0108AC
:10176000720100206401002001F00F0C2DE9F74FF9
:101770008846C1F30725C1F3074B4FEA116A0CF104
:101780000801174601F00F02062A064603D8002F6B
:1017900040F08A80F3E0F02D05D00CF10C0000F051
:1017A0000F03032B28D87749D1E90023134323D112
:1017B00006F0F004302C4FF000000CD0502C13D069
:1017C000102C19D1704C06F00F032080012404FA6C
:1017D00003F20A8010E06C4A0124108006F00F002A
:1017E00004FA00F34B8007E0674C208006F00F00FE
:1017F000012404FA00F38B80ACF102010D2900F200
:10180000BE80DFE811F04E004E000E004C00540088
:101810005400BC00BC00BC00BC00BC00BC00BC0050
:101820000E00F72D3DD8304629466FF30718FFF715
:101830002FFF08F00F020F2A019207D059463046B9
:10184000FFF726FF30465146FFF722FF4F48037847
:1018500003F00801CAB2002A40F091804C4C236882
:10186000002B00F08A803046294698478146C3B253
:1018700001980F280ED0256859463046A847514692
:10188000054622683046904745EA000141EA0909C9
:101890005FFA89F3002F72D0002B70D165E0F72D2D
:1018A00005D9002F6BD0304628F0F0015FE0ACF195
:1018B000040414F0FF045CD029463046FFF7E8FE2C
:1018C0003248027802F00801CBB243B930480268CE
:1018D00042B13046294690475FFA80F903E04FF065
:1018E000000900E09146012C45D059463046FFF7EB
:1018F000CFFE26490B7803F00800C2B24AB924494A
:101900000B6833B130465946984740EA09005FFA00
:1019100080F9022C14D051463046FFF7B9FE1B4A1D
:10192000117801F00803D8B258B9194A136843B1C5
:1019300051463046984740EA09015FFA81F900E0D4
:10194000DA46BAF1F70F04D10E4800240025C0E9A9
:1019500000450E4A137803F00801C8B278B977B190
:10196000B9F1000F0BD169F3071830464146B8476B
:1019700005E0A146EDE7AA46E3E7002FF5D10020F8
:10198000BDE8FE8F8801002074010020780100204E
:10199000900100202DE9F04180468CB0684601F0AE
:1019A00055FA002807DB0099C1F3031010304246B6
:1019B000FFF7DAFEF2E73B4D0FCD02AC0FC40FCDBF
:1019C0000FC495E803009DF8083084E803004BB38A
:1019D0000024254626460CA800EBC40111F8282C4B
:1019E00012B9FDB1144615460CAF07EBC40301A9AB
:1019F00013F8287C53F8242C07F00F00904710F1BF
:101A00000A0F03D13846FFF7E9FC08E0002806DB9F
:101A100038460199424601360135FFF7A5FE0134EB
:101A2000092ED8DD2049D1E9002352EA030035D040
:101A30001E480388B3F57A7F30D90A8862B1002145
:101A400042FA01F313F0010003D101311029F7D15B
:101A500001461031C8B21AE04B885BB143FA02F07C
:101A600010F0010103D10132102AF7D10A463032B9
:101A7000D0B20CE0888850B140FA03F111F00102B5
:101A800003D10133102BF7D113465033D8B2FFF7EF
:101A9000A5FC054800220023C0E9002300200CB06B
:101AA000BDE8F081207C010888010020740100203D
:101AB000002814BF4FF0FF3000207047012838B5D0
:101AC00004460CD800F0FEFA064B0748FF2200251A
:101AD0001A5520F8145000F009FB284638BD4FF085
:101AE000FF3038BD98010020B601002010B5044633
:101AF00010B14FF0FF3010BD0D4B0E491860FF22A2
:101B0000187158719871D8711881D8601874587408
:101B10009874D87498820A70FFF7D0FF0120FFF7FD
:101B2000CDFF204601F00CFA0028E2DB204610BD74
:101B30009C010020B401002008B500F0C3FA104A4F
:101B400013884FF6FF718B42084601D00133138092
:101B50000C4B1989814201D0481C188152884FF6DC
:101B6000FF718A4202D00648013242809B8A8B4232
:101B700002D0044A591C918200F0B8FA002008BD36
:101B8000B60100209C010020F7B50128C1F307260B
:101B900001F00F03C1F307420546F7B2C1F3076135
:101BA00002D94FF0FF3040E0204CE45C002C3BD0E9
:101BB000DFF888E08DF804603EF815C08DF8052048
:101BC000BCF57A7F8DF8061002D9FFF777FF1BE08E
:101BD0001748007840FA05F0C00715D5072B13DD2C
:101BE0000F2B11D0012C0ED9124B5B5DBB4206D1DD
:101BF0008DF80420621E8DF80510D4B204E0002395
:101C00002EF8153000E00124F72F98BF094B01A9E9
:101C10002846224698BF5E5501F000FB811C022930
:101C2000BFD80548405600E02046FEBD587C01085C
:101C3000B401002098010020A67D0108B601002013
:101C400038B505460C4628462146FFF79DFF831C04
:101C5000F9D038BD01282DE9F04180460F4603D95F
:101C60004FF0FF30BDE8F081634D0C2606FB00F617
:101C7000AC19404601F004FA0028C0F2A180020627
:101C8000C3B252D5F72B08D9396841F00F023A6038
:101C90007B700023BB70FB70ABE0C3F302125749AB
:101CA0002371895C617109B1002137E000F00F00F8
:101CB000534A125CF02B627103D101226370E2710E
:101CC000F2E7F72B1DD1E279207842B1012A0ED13B
:101CD000062262F303002070A370E1700CE005217E
:101CE00061F3030020706370A270E27004E00721CA
:101CF00061F303002070E370236800203B60E07113
:101D00000BE0002AD0D121786370052060F3030135
:101D10002170A270E27023683B600121637900208A
:101D2000A37120810029A4D063E02279F02A17D181
:101D3000E279511CC8B20128E07103D0022803D116
:101D4000A37096E7637094E7E370AB5D042262F3DF
:101D50000303AB55A95900203960E071208148E0A8
:101D6000A07920B962792081511EA17101E0411E44
:101D7000A1716079012802D1A370002303E0A27948
:101D80000AB1A37000E0E370A379002B7FF471AF78
:101D90002079AA5D00F0F001F02901D0010908E0E6
:101DA00063791BB1012B03D1022102E0052100E080
:101DB000032161F30302AA556070A859386018E046
:101DC0000020A17971B12289B2F57A7F0AD9002366
:101DD000AB5123716371A371E37123816FF009002B
:101DE000BDE8F08100280CBF4FF0FF300020BDE8B7
:101DF000F0810120E5E700BF9C010020997D0108EA
:101E0000487C0108002070474FF0FF3070470020E9
:101E100070474FF0FF30704710B9034B18607047A0
:101E20004FF0FF30704700BFBC010020024B1A6822
:101E3000501C186000207047BC01002010B5FEF750
:101E40002FFF00F03FF94FF0FF30002100F0FCF9C8
:101E500032244FF47A7000F0FDFA013CF9D16FF0B2
:101E60000100012101F0D2FD6FF08000012101F09D
:101E7000D9FD4FF0FF30012101F0E0FD4FF0FF30C0
:101E8000012101F0E7FD4FF0FF30214601F0BEFDDA
:101E90004FF0FF30214601F0C5FD4FF0FF302146E5
:101EA00001F0CCFD4FF0FF30214601F0D3FD024A96
:101EB000024BDA60FEE700BF0100FA0500ED00E02A
:101EC000014B1868704700BF002004E0024B1888DF
:101ED00081B28802704700BF227AFF1F4FF4403062
:101EE0007047000000230B4A591089180A78D90757
:101EF00058BF120902F00F02092A94BF302137217E
:101F00008A18C2540133182BEDD1002101760846FE
:101F1000704700BF107AFF1F10B586B004468DE8E9
:101F2000030001214FF0805001F058FD012001F025
:101F3000D3FC174801F01CFD012001F031FD03A87E
:101F400001F0A0FD632041F28731049003A80591C0
:101F500001F0C6FD02A801F04FFE4FF46162B4FB30
:101F6000F2F33C2102FB13408DF80830B4FBF1F38F
:101F7000B0FBF1F201FB1344002002A98DF8092007
:101F80008DF80A4001F0F2FD002006B010BD00BF40
:101F9000000310001FB50446002840F083801F2076
:101FA000012101F003FD414B00949A6802F00C00FE
:101FB000082802D1012000905DE0196841F001027B
:101FC0001A609C60186820F08471394821F48032CE
